{
    "contractName": "Contract",
    "abi": [
        {
            "anonymous": false,
            "inputs": [
                {
                    "indexed": false,
                    "internalType": "string",
                    "name": "newValue",
                    "type": "string"
                },
                {
                    "indexed": false,
                    "internalType": "address",
                    "name": "updatedBy",
                    "type": "address"
                }
            ],
            "name": "storageUpdate",
            "type": "event"
        },
        {
            "inputs": [],
            "name": "getHash",
            "outputs": [
                {
                    "internalType": "string[]",
                    "name": "",
                    "type": "string[]"
                }
            ],
            "stateMutability": "view",
            "type": "function"
        },
        {
            "inputs": [
                {
                    "internalType": "string",
                    "name": "hash",
                    "type": "string"
                }
            ],
            "name": "sendHash",
            "outputs": [],
            "stateMutability": "nonpayable",
            "type": "function"
        }
    ],
    "bytecode": "608060405234801561001057600080fd5b50610408806100206000396000f3fe608060405234801561001057600080fd5b50600436106100365760003560e01c8063d13319c41461003b578063dfb2993514610059575b600080fd5b61004361006e565b604051610050919061033c565b60405180910390f35b61006c610067366004610256565b610146565b005b60606000805480602002602001604051908101604052809291908181526020016000905b8282101561013d5760008481526020908190208301805460408051601f60026000196101006001871615020190941693909304928301859004850281018501909152818152928301828280156101295780601f106100fe57610100808354040283529160200191610129565b820191906000526020600020905b81548152906001019060200180831161010c57829003601f168201915b505050505081526020019060010190610092565b50505050905090565b600080546001810182559080528151610186917f290decd9548b62a8d60345a988386fc84ba6bc95484008f6362f93160ef3e563019060208401906101c3565b507f02a1557e5e4bae75712f31a986c7c1b58f8b42dfc14f50b11f3b7dcddaff4aa481336040516101b892919061039c565b60405180910390a150565b828054600181600116156101000203166002900490600052602060002090601f016020900481019282601f1061020457805160ff1916838001178555610231565b82800160010185558215610231579182015b82811115610231578251825591602001919060010190610216565b5061023d929150610241565b5090565b5b8082111561023d5760008155600101610242565b600060208284031215610267578081fd5b813567ffffffffffffffff8082111561027e578283fd5b818401915084601f830112610291578283fd5b81358181111561029f578384fd5b604051601f8201601f1916810160200183811182821017156102bf578586fd5b6040528181528382016020018710156102d6578485fd5b6102e78260208301602087016103c6565b9695505050505050565b60008151808452815b81811015610316576020818501810151868301820152016102fa565b818111156103275782602083870101525b50601f01601f19169290920160200192915050565b6000602080830181845280855180835260408601915060408482028701019250838701855b8281101561038f57603f1988860301845261037d8583516102f1565b94509285019290850190600101610361565b5092979650505050505050565b6000604082526103af60408301856102f1565b905060018060a01b03831660208301529392505050565b8281833750600091015256fea2646970667358221220aff379011324bddbc8fe285926c073759be45f90f050c675802cfb792221bcee64736f6c63430007000033",
    "sourcePath": "/Users/zeningluo/Documents/GitHub/IPFS-Ethereum-dApp/src/Contracts/storehash.sol",
    "compiler": {
        "name": "solc",
        "version": "0.7.0+commit.9e61f92b"
    },
    "functionHashes": {
        "getHash()": "d13319c4",
        "sendHash(string)": "dfb29935"
    },
    "gasEstimates": {
        "creation": {
            "codeDepositCost": "206400",
            "executionCost": "251",
            "totalCost": "206651"
        },
        "external": {
            "getHash()": "infinite",
            "sendHash(string)": "infinite"
        }
    }
}