{
  "contractName": "StoreHashNew",
  "abi": [
    {
      "anonymous": false,
      "inputs": [
        {
          "indexed": false,
          "internalType": "string",
          "name": "newValue",
          "type": "string"
        },
        {
          "indexed": false,
          "internalType": "address",
          "name": "updatedBy",
          "type": "address"
        }
      ],
      "name": "storageUpdate",
      "type": "event"
    },
    {
      "inputs": [
        {
          "internalType": "uint256",
          "name": "",
          "type": "uint256"
        }
      ],
      "name": "newsList",
      "outputs": [
        {
          "internalType": "address",
          "name": "user",
          "type": "address"
        },
        {
          "internalType": "string",
          "name": "timeStamp",
          "type": "string"
        },
        {
          "internalType": "string",
          "name": "location",
          "type": "string"
        },
        {
          "internalType": "string",
          "name": "fileHash",
          "type": "string"
        },
        {
          "internalType": "string",
          "name": "imageHash",
          "type": "string"
        },
        {
          "internalType": "string",
          "name": "category",
          "type": "string"
        }
      ],
      "stateMutability": "view",
      "type": "function",
      "constant": true
    },
    {
      "inputs": [
        {
          "internalType": "string",
          "name": "",
          "type": "string"
        }
      ],
      "name": "postReputation",
      "outputs": [
        {
          "internalType": "int256",
          "name": "",
          "type": "int256"
        }
      ],
      "stateMutability": "view",
      "type": "function",
      "constant": true
    },
    {
      "inputs": [
        {
          "internalType": "string",
          "name": "",
          "type": "string"
        },
        {
          "internalType": "address",
          "name": "",
          "type": "address"
        }
      ],
      "name": "postToAccess",
      "outputs": [
        {
          "internalType": "bool",
          "name": "",
          "type": "bool"
        }
      ],
      "stateMutability": "view",
      "type": "function",
      "constant": true
    },
    {
      "inputs": [
        {
          "internalType": "address",
          "name": "",
          "type": "address"
        }
      ],
      "name": "userReputation",
      "outputs": [
        {
          "internalType": "uint256",
          "name": "",
          "type": "uint256"
        }
      ],
      "stateMutability": "view",
      "type": "function",
      "constant": true
    },
    {
      "inputs": [
        {
          "internalType": "string",
          "name": "ipfsHash",
          "type": "string"
        },
        {
          "internalType": "string",
          "name": "location",
          "type": "string"
        },
        {
          "internalType": "string",
          "name": "time",
          "type": "string"
        },
        {
          "internalType": "string",
          "name": "imageHash",
          "type": "string"
        },
        {
          "internalType": "string",
          "name": "category",
          "type": "string"
        }
      ],
      "name": "sendUpdate",
      "outputs": [],
      "stateMutability": "nonpayable",
      "type": "function"
    },
    {
      "inputs": [],
      "name": "getUpdate",
      "outputs": [
        {
          "components": [
            {
              "internalType": "address",
              "name": "user",
              "type": "address"
            },
            {
              "internalType": "string",
              "name": "timeStamp",
              "type": "string"
            },
            {
              "internalType": "string",
              "name": "location",
              "type": "string"
            },
            {
              "internalType": "string",
              "name": "fileHash",
              "type": "string"
            },
            {
              "internalType": "string",
              "name": "imageHash",
              "type": "string"
            },
            {
              "internalType": "string",
              "name": "category",
              "type": "string"
            }
          ],
          "internalType": "struct StoreHashNew.newsUpdate[]",
          "name": "",
          "type": "tuple[]"
        }
      ],
      "stateMutability": "view",
      "type": "function",
      "constant": true
    },
    {
      "inputs": [
        {
          "internalType": "address",
          "name": "account",
          "type": "address"
        }
      ],
      "name": "getReputation",
      "outputs": [
        {
          "internalType": "uint256",
          "name": "",
          "type": "uint256"
        }
      ],
      "stateMutability": "view",
      "type": "function",
      "constant": true
    },
    {
      "inputs": [
        {
          "internalType": "address",
          "name": "account",
          "type": "address"
        },
        {
          "internalType": "uint256",
          "name": "amount",
          "type": "uint256"
        }
      ],
      "name": "increaseReputation",
      "outputs": [],
      "stateMutability": "nonpayable",
      "type": "function"
    },
    {
      "inputs": [
        {
          "internalType": "address",
          "name": "account",
          "type": "address"
        },
        {
          "internalType": "uint256",
          "name": "amount",
          "type": "uint256"
        }
      ],
      "name": "decreaseReputation",
      "outputs": [],
      "stateMutability": "nonpayable",
      "type": "function"
    },
    {
      "inputs": [
        {
          "internalType": "string",
          "name": "ipfsHash",
          "type": "string"
        }
      ],
      "name": "increaseVote",
      "outputs": [],
      "stateMutability": "nonpayable",
      "type": "function"
    },
    {
      "inputs": [
        {
          "internalType": "string",
          "name": "ipfsHash",
          "type": "string"
        }
      ],
      "name": "decreaseVote",
      "outputs": [],
      "stateMutability": "nonpayable",
      "type": "function"
    },
    {
      "inputs": [
        {
          "internalType": "string",
          "name": "ipfsHash",
          "type": "string"
        }
      ],
      "name": "getVote",
      "outputs": [
        {
          "internalType": "int256",
          "name": "",
          "type": "int256"
        }
      ],
      "stateMutability": "view",
      "type": "function",
      "constant": true
    },
    {
      "inputs": [
        {
          "internalType": "string",
          "name": "ipfsHash",
          "type": "string"
        },
        {
          "internalType": "address",
          "name": "account",
          "type": "address"
        }
      ],
      "name": "grantAccess",
      "outputs": [],
      "stateMutability": "nonpayable",
      "type": "function"
    },
    {
      "inputs": [
        {
          "internalType": "string",
          "name": "ipfsHash",
          "type": "string"
        },
        {
          "internalType": "address",
          "name": "account",
          "type": "address"
        }
      ],
      "name": "checkAccess",
      "outputs": [
        {
          "internalType": "bool",
          "name": "",
          "type": "bool"
        }
      ],
      "stateMutability": "view",
      "type": "function",
      "constant": true
    }
  ],
  "bytecode": "0x608060405234801561001057600080fd5b50611813806100206000396000f3fe608060405234801561001057600080fd5b50600436106100ea5760003560e01c8063ce73e80f1161008c578063e503bb0511610066578063e503bb0514610272578063e5e95036146102a2578063ed9fa61b146102d2578063f37c215e146102ee576100ea565b8063ce73e80f1461020a578063d918cc121461023a578063ded86d6814610256576100ea565b80635872f039116100c85780635872f0391461015957806368aaf76a1461018e5780639c89a0e2146101aa578063baa40e5c146101da576100ea565b806325f5ec19146100ef57806326cc0da71461010d57806344a08b3614610129575b600080fd5b6100f761030a565b60405161010491906115cd565b60405180910390f35b61012760048036038101906101229190611169565b6106e9565b005b610143600480360381019061013e91906111aa565b610719565b60405161015091906115ef565b60405180910390f35b610173600480360381019061016e91906112ed565b6107a4565b60405161018596959493929190611549565b60405180910390f35b6101a860048036038101906101a39190611169565b610b05565b005b6101c460048036038101906101bf9190611104565b610b35565b6040516101d19190611625565b60405180910390f35b6101f460048036038101906101ef9190611169565b610b7e565b604051610201919061160a565b60405180910390f35b610224600480360381019061021f9190611169565b610ba6565b604051610231919061160a565b60405180910390f35b610254600480360381019061024f91906111fe565b610bd4565b005b610270600480360381019061026b919061112d565b610e27565b005b61028c60048036038101906102879190611104565b610e78565b6040516102999190611625565b60405180910390f35b6102bc60048036038101906102b791906111aa565b610e90565b6040516102c991906115ef565b60405180910390f35b6102ec60048036038101906102e7919061112d565b610ed5565b005b610308600480360381019061030391906111aa565b610f71565b005b60606000805480602002602001604051908101604052809291908181526020016000905b828210156106e057838290600052602060002090600602016040518060c00160405290816000820160009054906101000a900473ffffffffffffffffffffffffffffffffffffffff1673ffffffffffffffffffffffffffffffffffffffff1673ffffffffffffffffffffffffffffffffffffffff168152602001600182018054600181600116156101000203166002900480601f0160208091040260200160405190810160405280929190818152602001828054600181600116156101000203166002900480156104405780601f1061041557610100808354040283529160200191610440565b820191906000526020600020905b81548152906001019060200180831161042357829003601f168201915b50505050508152602001600282018054600181600116156101000203166002900480601f0160208091040260200160405190810160405280929190818152602001828054600181600116156101000203166002900480156104e25780601f106104b7576101008083540402835291602001916104e2565b820191906000526020600020905b8154815290600101906020018083116104c557829003601f168201915b50505050508152602001600382018054600181600116156101000203166002900480601f0160208091040260200160405190810160405280929190818152602001828054600181600116156101000203166002900480156105845780601f1061055957610100808354040283529160200191610584565b820191906000526020600020905b81548152906001019060200180831161056757829003601f168201915b50505050508152602001600482018054600181600116156101000203166002900480601f0160208091040260200160405190810160405280929190818152602001828054600181600116156101000203166002900480156106265780601f106105fb57610100808354040283529160200191610626565b820191906000526020600020905b81548152906001019060200180831161060957829003601f168201915b50505050508152602001600582018054600181600116156101000203166002900480601f0160208091040260200160405190810160405280929190818152602001828054600181600116156101000203166002900480156106c85780601f1061069d576101008083540402835291602001916106c8565b820191906000526020600020905b8154815290600101906020018083116106ab57829003601f168201915b5050505050815250508152602001906001019061032e565b50505050905090565b60016002826040516106fb9190611532565b90815260200160405180910390206000828254039250508190555050565b60006001151560038460405161072f9190611532565b908152602001604051809103902060008473ffffffffffffffffffffffffffffffffffffffff1673ffffffffffffffffffffffffffffffffffffffff16815260200190815260200160002060009054906101000a900460ff1615151415610799576001905061079e565b600090505b92915050565b600081815481106107b157fe5b90600052602060002090600602016000915090508060000160009054906101000a900473ffffffffffffffffffffffffffffffffffffffff1690806001018054600181600116156101000203166002900480601f0160208091040260200160405190810160405280929190818152602001828054600181600116156101000203166002900480156108835780601f1061085857610100808354040283529160200191610883565b820191906000526020600020905b81548152906001019060200180831161086657829003601f168201915b505050505090806002018054600181600116156101000203166002900480601f0160208091040260200160405190810160405280929190818152602001828054600181600116156101000203166002900480156109215780601f106108f657610100808354040283529160200191610921565b820191906000526020600020905b81548152906001019060200180831161090457829003601f168201915b505050505090806003018054600181600116156101000203166002900480601f0160208091040260200160405190810160405280929190818152602001828054600181600116156101000203166002900480156109bf5780601f10610994576101008083540402835291602001916109bf565b820191906000526020600020905b8154815290600101906020018083116109a257829003601f168201915b505050505090806004018054600181600116156101000203166002900480601f016020809104026020016040519081016040528092919081815260200182805460018160011615610100020316600290048015610a5d5780601f10610a3257610100808354040283529160200191610a5d565b820191906000526020600020905b815481529060010190602001808311610a4057829003601f168201915b505050505090806005018054600181600116156101000203166002900480601f016020809104026020016040519081016040528092919081815260200182805460018160011615610100020316600290048015610afb5780601f10610ad057610100808354040283529160200191610afb565b820191906000526020600020905b815481529060010190602001808311610ade57829003601f168201915b5050505050905086565b6001600282604051610b179190611532565b90815260200160405180910390206000828254019250508190555050565b6000600160008373ffffffffffffffffffffffffffffffffffffffff1673ffffffffffffffffffffffffffffffffffffffff168152602001908152602001600020549050919050565b6000600282604051610b909190611532565b9081526020016040518091039020549050919050565b6002818051602081018201805184825260208301602085012081835280955050505050506000915090505481565b60006040518060c001604052803373ffffffffffffffffffffffffffffffffffffffff16815260200185815260200186815260200187815260200184815260200183815250908060018154018082558091505060019003906000526020600020906006020160009091909190915060008201518160000160006101000a81548173ffffffffffffffffffffffffffffffffffffffff021916908373ffffffffffffffffffffffffffffffffffffffff1602179055506020820151816001019080519060200190610ca5929190610fe9565b506040820151816002019080519060200190610cc2929190610fe9565b506060820151816003019080519060200190610cdf929190610fe9565b506080820151816004019080519060200190610cfc929190610fe9565b5060a0820151816005019080519060200190610d19929190610fe9565b5050506000600286604051610d2e9190611532565b9081526020016040518091039020819055506000600160003373ffffffffffffffffffffffffffffffffffffffff1673ffffffffffffffffffffffffffffffffffffffff1681526020019081526020016000205414610dda57600a600160003373ffffffffffffffffffffffffffffffffffffffff1673ffffffffffffffffffffffffffffffffffffffff16815260200190815260200160002060008282540192505081905550610e20565b600a600160003373ffffffffffffffffffffffffffffffffffffffff1673ffffffffffffffffffffffffffffffffffffffff168152602001908152602001600020819055505b5050505050565b80600160008473ffffffffffffffffffffffffffffffffffffffff1673ffffffffffffffffffffffffffffffffffffffff168152602001908152602001600020600082825401925050819055505050565b60016020528060005260406000206000915090505481565b6003828051602081018201805184825260208301602085012081835280955050505050506020528060005260406000206000915091509054906101000a900460ff1681565b80600160008473ffffffffffffffffffffffffffffffffffffffff1673ffffffffffffffffffffffffffffffffffffffff1681526020019081526020016000205411610f2057600080fd5b80600160008473ffffffffffffffffffffffffffffffffffffffff1673ffffffffffffffffffffffffffffffffffffffff168152602001908152602001600020600082825403925050819055505050565b6001600383604051610f839190611532565b908152602001604051809103902060008373ffffffffffffffffffffffffffffffffffffffff1673ffffffffffffffffffffffffffffffffffffffff16815260200190815260200160002060006101000a81548160ff0219169083151502179055505050565b828054600181600116156101000203166002900490600052602060002090601f016020900481019282601f1061102a57805160ff1916838001178555611058565b82800160010185558215611058579182015b8281111561105757825182559160200191906001019061103c565b5b5090506110659190611069565b5090565b5b8082111561108257600081600090555060010161106a565b5090565b600081359050611095816117af565b92915050565b600082601f8301126110ac57600080fd5b81356110bf6110ba8261166d565b611640565b915080825260208301602083018583830111156110db57600080fd5b6110e683828461175c565b50505092915050565b6000813590506110fe816117c6565b92915050565b60006020828403121561111657600080fd5b600061112484828501611086565b91505092915050565b6000806040838503121561114057600080fd5b600061114e85828601611086565b925050602061115f858286016110ef565b9150509250929050565b60006020828403121561117b57600080fd5b600082013567ffffffffffffffff81111561119557600080fd5b6111a18482850161109b565b91505092915050565b600080604083850312156111bd57600080fd5b600083013567ffffffffffffffff8111156111d757600080fd5b6111e38582860161109b565b92505060206111f485828601611086565b9150509250929050565b600080600080600060a0868803121561121657600080fd5b600086013567ffffffffffffffff81111561123057600080fd5b61123c8882890161109b565b955050602086013567ffffffffffffffff81111561125957600080fd5b6112658882890161109b565b945050604086013567ffffffffffffffff81111561128257600080fd5b61128e8882890161109b565b935050606086013567ffffffffffffffff8111156112ab57600080fd5b6112b78882890161109b565b925050608086013567ffffffffffffffff8111156112d457600080fd5b6112e08882890161109b565b9150509295509295909350565b6000602082840312156112ff57600080fd5b600061130d848285016110ef565b91505092915050565b6000611322838361147e565b905092915050565b6113338161170a565b82525050565b6113428161170a565b82525050565b6000611353826116a9565b61135d81856116cc565b93508360208202850161136f85611699565b8060005b858110156113ab578484038952815161138c8582611316565b9450611397836116bf565b925060208a01995050600181019050611373565b50829750879550505050505092915050565b6113c68161171c565b82525050565b6113d581611728565b82525050565b60006113e6826116b4565b6113f081856116dd565b935061140081856020860161176b565b6114098161179e565b840191505092915050565b600061141f826116b4565b61142981856116ee565b935061143981856020860161176b565b6114428161179e565b840191505092915050565b6000611458826116b4565b61146281856116ff565b935061147281856020860161176b565b80840191505092915050565b600060c083016000830151611496600086018261132a565b50602083015184820360208601526114ae82826113db565b915050604083015184820360408601526114c882826113db565b915050606083015184820360608601526114e282826113db565b915050608083015184820360808601526114fc82826113db565b91505060a083015184820360a086015261151682826113db565b9150508091505092915050565b61152c81611752565b82525050565b600061153e828461144d565b915081905092915050565b600060c08201905061155e6000830189611339565b81810360208301526115708188611414565b905081810360408301526115848187611414565b905081810360608301526115988186611414565b905081810360808301526115ac8185611414565b905081810360a08301526115c08184611414565b9050979650505050505050565b600060208201905081810360008301526115e78184611348565b905092915050565b600060208201905061160460008301846113bd565b92915050565b600060208201905061161f60008301846113cc565b92915050565b600060208201905061163a6000830184611523565b92915050565b6000604051905081810181811067ffffffffffffffff8211171561166357600080fd5b8060405250919050565b600067ffffffffffffffff82111561168457600080fd5b601f19601f8301169050602081019050919050565b6000819050602082019050919050565b600081519050919050565b600081519050919050565b6000602082019050919050565b600082825260208201905092915050565b600082825260208201905092915050565b600082825260208201905092915050565b600081905092915050565b600061171582611732565b9050919050565b60008115159050919050565b6000819050919050565b600073ffffffffffffffffffffffffffffffffffffffff82169050919050565b6000819050919050565b82818337600083830152505050565b60005b8381101561178957808201518184015260208101905061176e565b83811115611798576000848401525b50505050565b6000601f19601f8301169050919050565b6117b88161170a565b81146117c357600080fd5b50565b6117cf81611752565b81146117da57600080fd5b5056fea26469706673582212200b343eb80334c5b5c29a0d2ec10648aa2ac3162d439644df21a13db3e6d6a76964736f6c63430007000033",
  "immutableReferences": {},
  "source": "// SPDX-License-Identifier: MIT\npragma experimental ABIEncoderV2;\npragma solidity ^0.7.0;\n\ncontract StoreHashNew {\n\n    struct newsUpdate {\n        address user;\n        string timeStamp;\n        string location;\n        string fileHash;\n        string imageHash;\n        string category;\n    }\n\n    newsUpdate[] public newsList;\n    mapping(address => uint) public userReputation;\n    mapping(string => int) public postReputation;\n    mapping(string => mapping(address => bool)) public postToAccess;\n\n    event storageUpdate(string newValue, address updatedBy);\n    \n    function sendUpdate(string memory ipfsHash,string memory location, string memory time, string memory imageHash,string memory category) public {\n        newsList.push(newsUpdate({\n            user:msg.sender,\n            timeStamp:time,\n            location:location,\n            fileHash: ipfsHash,\n            imageHash: imageHash,\n            category: category\n        }));\n        //initialize the post vote to zero\n        postReputation[ipfsHash] = 0;\n        if (userReputation[msg.sender] != 0x0){\n             userReputation[msg.sender]+=10;\n        }else{\n            userReputation[msg.sender]=10;\n        }\n    }\n\n    function getUpdate() public view returns (newsUpdate[] memory) {\n        return newsList;\n    }\n\n    function getReputation(address account) public view returns (uint){\n        return userReputation[account];\n    }\n    \n    function increaseReputation(address account, uint amount) public  {\n        userReputation[account] +=amount;\n    }\n    \n    function decreaseReputation(address account, uint amount) public  {\n        require(userReputation[account]>amount);\n        userReputation[account] -=amount;\n    }\n\n    function increaseVote(string memory ipfsHash) public {\n        postReputation[ipfsHash]+=1;\n    }\n\n    function decreaseVote(string memory ipfsHash) public {\n        postReputation[ipfsHash]-=1;\n    }\n\n    function getVote(string memory ipfsHash) public view returns (int){\n        return postReputation[ipfsHash];\n    }\n    // to grant access to user to a specfic post\n\n    function grantAccess(string memory ipfsHash, address account) public{\n        postToAccess[ipfsHash][account] =true;\n    }\n\n    function checkAccess(string memory ipfsHash, address account) public view returns (bool){\n        if (postToAccess[ipfsHash][account] == true){\n            return true;\n        }\n        return false;\n    }\n\n    \n}\n\n",
  "sourcePath": "/Users/zeningluo/Documents/GitHub/IPFS-Ethereum-dApp/contracts/StoreHashNew.sol",
  "compiler": {
    "name": "solc",
    "version": "0.7.0+commit.9e61f92b.Emscripten.clang"
  },
  "schemaVersion": "3.3.1",
  "updatedAt": "2020-11-19T02:32:27.495Z",
  "networkType": "ethereum",
  "devdoc": {
    "kind": "dev",
    "methods": {},
    "version": 1
  },
  "userdoc": {
    "kind": "user",
    "methods": {},
    "version": 1
  }
}