{
  "contractName": "StoreHash",
  "abi": [
    {
      "anonymous": false,
      "inputs": [
        {
          "indexed": false,
          "internalType": "string",
          "name": "newValue",
          "type": "string"
        },
        {
          "indexed": false,
          "internalType": "address",
          "name": "updatedBy",
          "type": "address"
        }
      ],
      "name": "storageUpdate",
      "type": "event"
    },
    {
      "inputs": [
        {
          "internalType": "uint256",
          "name": "",
          "type": "uint256"
        }
      ],
      "name": "newsList",
      "outputs": [
        {
          "internalType": "address",
          "name": "user",
          "type": "address"
        },
        {
          "internalType": "string",
          "name": "username",
          "type": "string"
        },
        {
          "internalType": "string",
          "name": "timeStamp",
          "type": "string"
        },
        {
          "internalType": "string",
          "name": "location",
          "type": "string"
        },
        {
          "internalType": "string",
          "name": "fileHash",
          "type": "string"
        },
        {
          "internalType": "string",
          "name": "imageHash",
          "type": "string"
        },
        {
          "internalType": "string",
          "name": "category",
          "type": "string"
        },
        {
          "internalType": "string",
          "name": "extension",
          "type": "string"
        }
      ],
      "stateMutability": "view",
      "type": "function"
    },
    {
      "inputs": [
        {
          "internalType": "string",
          "name": "",
          "type": "string"
        }
      ],
      "name": "postReputation",
      "outputs": [
        {
          "internalType": "int256",
          "name": "",
          "type": "int256"
        }
      ],
      "stateMutability": "view",
      "type": "function"
    },
    {
      "inputs": [
        {
          "internalType": "string",
          "name": "",
          "type": "string"
        },
        {
          "internalType": "address",
          "name": "",
          "type": "address"
        }
      ],
      "name": "postToAccess",
      "outputs": [
        {
          "internalType": "bool",
          "name": "",
          "type": "bool"
        }
      ],
      "stateMutability": "view",
      "type": "function"
    },
    {
      "inputs": [
        {
          "internalType": "address",
          "name": "",
          "type": "address"
        }
      ],
      "name": "userProfile",
      "outputs": [
        {
          "internalType": "bytes32",
          "name": "",
          "type": "bytes32"
        }
      ],
      "stateMutability": "view",
      "type": "function"
    },
    {
      "inputs": [
        {
          "internalType": "address",
          "name": "",
          "type": "address"
        }
      ],
      "name": "userReputation",
      "outputs": [
        {
          "internalType": "uint256",
          "name": "",
          "type": "uint256"
        }
      ],
      "stateMutability": "view",
      "type": "function"
    },
    {
      "inputs": [
        {
          "internalType": "string",
          "name": "ipfsHash",
          "type": "string"
        },
        {
          "internalType": "string",
          "name": "location",
          "type": "string"
        },
        {
          "internalType": "string",
          "name": "time",
          "type": "string"
        },
        {
          "internalType": "string",
          "name": "imageHash",
          "type": "string"
        },
        {
          "internalType": "string",
          "name": "category",
          "type": "string"
        },
        {
          "internalType": "string",
          "name": "extension",
          "type": "string"
        }
      ],
      "name": "sendUpdate",
      "outputs": [],
      "stateMutability": "nonpayable",
      "type": "function"
    },
    {
      "inputs": [],
      "name": "getUpdate",
      "outputs": [
        {
          "components": [
            {
              "internalType": "address",
              "name": "user",
              "type": "address"
            },
            {
              "internalType": "string",
              "name": "username",
              "type": "string"
            },
            {
              "internalType": "string",
              "name": "timeStamp",
              "type": "string"
            },
            {
              "internalType": "string",
              "name": "location",
              "type": "string"
            },
            {
              "internalType": "string",
              "name": "fileHash",
              "type": "string"
            },
            {
              "internalType": "string",
              "name": "imageHash",
              "type": "string"
            },
            {
              "internalType": "string",
              "name": "category",
              "type": "string"
            },
            {
              "internalType": "string",
              "name": "extension",
              "type": "string"
            }
          ],
          "internalType": "struct StoreHash.newsUpdate[]",
          "name": "",
          "type": "tuple[]"
        }
      ],
      "stateMutability": "view",
      "type": "function"
    },
    {
      "inputs": [
        {
          "internalType": "address",
          "name": "account",
          "type": "address"
        }
      ],
      "name": "getReputation",
      "outputs": [
        {
          "internalType": "uint256",
          "name": "",
          "type": "uint256"
        }
      ],
      "stateMutability": "view",
      "type": "function"
    },
    {
      "inputs": [
        {
          "internalType": "address",
          "name": "account",
          "type": "address"
        },
        {
          "internalType": "uint256",
          "name": "amount",
          "type": "uint256"
        }
      ],
      "name": "increaseReputation",
      "outputs": [],
      "stateMutability": "nonpayable",
      "type": "function"
    },
    {
      "inputs": [
        {
          "internalType": "address",
          "name": "account",
          "type": "address"
        },
        {
          "internalType": "uint256",
          "name": "amount",
          "type": "uint256"
        }
      ],
      "name": "decreaseReputation",
      "outputs": [],
      "stateMutability": "nonpayable",
      "type": "function"
    },
    {
      "inputs": [
        {
          "internalType": "string",
          "name": "ipfsHash",
          "type": "string"
        }
      ],
      "name": "increaseVote",
      "outputs": [],
      "stateMutability": "nonpayable",
      "type": "function"
    },
    {
      "inputs": [
        {
          "internalType": "string",
          "name": "ipfsHash",
          "type": "string"
        }
      ],
      "name": "decreaseVote",
      "outputs": [],
      "stateMutability": "nonpayable",
      "type": "function"
    },
    {
      "inputs": [
        {
          "internalType": "string",
          "name": "ipfsHash",
          "type": "string"
        }
      ],
      "name": "getVote",
      "outputs": [
        {
          "internalType": "int256",
          "name": "",
          "type": "int256"
        }
      ],
      "stateMutability": "view",
      "type": "function"
    },
    {
      "inputs": [
        {
          "internalType": "string",
          "name": "ipfsHash",
          "type": "string"
        },
        {
          "internalType": "address",
          "name": "account",
          "type": "address"
        }
      ],
      "name": "grantAccess",
      "outputs": [],
      "stateMutability": "nonpayable",
      "type": "function"
    },
    {
      "inputs": [
        {
          "internalType": "string",
          "name": "ipfsHash",
          "type": "string"
        },
        {
          "internalType": "address",
          "name": "account",
          "type": "address"
        }
      ],
      "name": "checkAccess",
      "outputs": [
        {
          "internalType": "bool",
          "name": "",
          "type": "bool"
        }
      ],
      "stateMutability": "view",
      "type": "function"
    },
    {
      "inputs": [
        {
          "internalType": "address",
          "name": "account",
          "type": "address"
        }
      ],
      "name": "getUsername",
      "outputs": [
        {
          "internalType": "bytes32",
          "name": "",
          "type": "bytes32"
        }
      ],
      "stateMutability": "view",
      "type": "function"
    },
    {
      "inputs": [
        {
          "internalType": "address",
          "name": "account",
          "type": "address"
        },
        {
          "internalType": "bytes32",
          "name": "newName",
          "type": "bytes32"
        }
      ],
      "name": "setUsername",
      "outputs": [],
      "stateMutability": "nonpayable",
      "type": "function"
    },
    {
      "inputs": [
        {
          "internalType": "bytes32",
          "name": "_bytes32",
          "type": "bytes32"
        }
      ],
      "name": "bytes32ToString",
      "outputs": [
        {
          "internalType": "string",
          "name": "",
          "type": "string"
        }
      ],
      "stateMutability": "pure",
      "type": "function"
    }
  ],
  "bytecode": "0x608060405234801561001057600080fd5b50612116806100206000396000f3fe608060405234801561001057600080fd5b50600436106101165760003560e01c8063a3aadee8116100a2578063ded86d6811610071578063ded86d6814610330578063e503bb051461034c578063e5e950361461037c578063ed9fa61b146103ac578063f37c215e146103c857610116565b8063a3aadee814610284578063baa40e5c146102a0578063ce43c032146102d0578063ce73e80f1461030057610116565b806344a08b36116100e957806344a08b36146101a15780635872f039146101d157806368aaf76a146102085780639201de55146102245780639c89a0e21461025457610116565b80630875f7a91461011b5780631c8e89621461013757806325f5ec191461016757806326cc0da714610185575b600080fd5b61013560048036038101906101309190611a0a565b6103e4565b005b610151600480360381019061014c919061186a565b6107bf565b60405161015e9190611eaf565b60405180910390f35b61016f6107d7565b60405161017c9190611e72565b60405180910390f35b61019f600480360381019061019a9190611934565b610cfb565b005b6101bb60048036038101906101b691906119b6565b610d2b565b6040516101c89190611e94565b60405180910390f35b6101eb60048036038101906101e69190611b23565b610db6565b6040516101ff989796959493929190611dc3565b60405180910390f35b610222600480360381019061021d9190611934565b611253565b005b61023e6004803603810190610239919061190b565b611283565b60405161024b9190611ee5565b60405180910390f35b61026e6004803603810190610269919061186a565b6113f4565b60405161027b9190611f07565b60405180910390f35b61029e60048036038101906102999190611893565b61143d565b005b6102ba60048036038101906102b59190611934565b611485565b6040516102c79190611eca565b60405180910390f35b6102ea60048036038101906102e5919061186a565b6114ad565b6040516102f79190611eaf565b60405180910390f35b61031a60048036038101906103159190611934565b6114f6565b6040516103279190611eca565b60405180910390f35b61034a600480360381019061034591906118cf565b611524565b005b6103666004803603810190610361919061186a565b611575565b6040516103739190611f07565b60405180910390f35b610396600480360381019061039191906119b6565b61158d565b6040516103a39190611e94565b60405180910390f35b6103c660048036038101906103c191906118cf565b6115d2565b005b6103e260048036038101906103dd91906119b6565b61166e565b005b60006040518061010001604052803373ffffffffffffffffffffffffffffffffffffffff1681526020013073ffffffffffffffffffffffffffffffffffffffff16639201de55600460003373ffffffffffffffffffffffffffffffffffffffff1673ffffffffffffffffffffffffffffffffffffffff168152602001908152602001600020546040518263ffffffff1660e01b81526004016104869190611eaf565b60006040518083038186803b15801561049e57600080fd5b505afa1580156104b2573d6000803e3d6000fd5b505050506040513d6000823e3d601f19601f820116820180604052508101906104db9190611975565b815260200186815260200187815260200188815260200185815260200184815260200183815250908060018154018082558091505060019003906000526020600020906008020160009091909190915060008201518160000160006101000a81548173ffffffffffffffffffffffffffffffffffffffff021916908373ffffffffffffffffffffffffffffffffffffffff160217905550602082015181600101908051906020019061058e9291906116e6565b5060408201518160020190805190602001906105ab9291906116e6565b5060608201518160030190805190602001906105c89291906116e6565b5060808201518160040190805190602001906105e59291906116e6565b5060a08201518160050190805190602001906106029291906116e6565b5060c082015181600601908051906020019061061f9291906116e6565b5060e082015181600701908051906020019061063c9291906116e6565b50505060006002876040516106519190611dac565b90815260200160405180910390208190555060016003876040516106759190611dac565b908152602001604051809103902060003373ffffffffffffffffffffffffffffffffffffffff1673ffffffffffffffffffffffffffffffffffffffff16815260200190815260200160002060006101000a81548160ff0219169083151502179055506000600160003373ffffffffffffffffffffffffffffffffffffffff1673ffffffffffffffffffffffffffffffffffffffff168152602001908152602001600020541461077157600a600160003373ffffffffffffffffffffffffffffffffffffffff1673ffffffffffffffffffffffffffffffffffffffff168152602001908152602001600020600082825401925050819055506107b7565b600a600160003373ffffffffffffffffffffffffffffffffffffffff1673ffffffffffffffffffffffffffffffffffffffff168152602001908152602001600020819055505b505050505050565b60046020528060005260406000206000915090505481565b60606000805480602002602001604051908101604052809291908181526020016000905b82821015610cf25783829060005260206000209060080201604051806101000160405290816000820160009054906101000a900473ffffffffffffffffffffffffffffffffffffffff1673ffffffffffffffffffffffffffffffffffffffff1673ffffffffffffffffffffffffffffffffffffffff168152602001600182018054600181600116156101000203166002900480601f01602080910402602001604051908101604052809291908181526020018280546001816001161561010002031660029004801561090e5780601f106108e35761010080835404028352916020019161090e565b820191906000526020600020905b8154815290600101906020018083116108f157829003601f168201915b50505050508152602001600282018054600181600116156101000203166002900480601f0160208091040260200160405190810160405280929190818152602001828054600181600116156101000203166002900480156109b05780601f10610985576101008083540402835291602001916109b0565b820191906000526020600020905b81548152906001019060200180831161099357829003601f168201915b50505050508152602001600382018054600181600116156101000203166002900480601f016020809104026020016040519081016040528092919081815260200182805460018160011615610100020316600290048015610a525780601f10610a2757610100808354040283529160200191610a52565b820191906000526020600020905b815481529060010190602001808311610a3557829003601f168201915b50505050508152602001600482018054600181600116156101000203166002900480601f016020809104026020016040519081016040528092919081815260200182805460018160011615610100020316600290048015610af45780601f10610ac957610100808354040283529160200191610af4565b820191906000526020600020905b815481529060010190602001808311610ad757829003601f168201915b50505050508152602001600582018054600181600116156101000203166002900480601f016020809104026020016040519081016040528092919081815260200182805460018160011615610100020316600290048015610b965780601f10610b6b57610100808354040283529160200191610b96565b820191906000526020600020905b815481529060010190602001808311610b7957829003601f168201915b50505050508152602001600682018054600181600116156101000203166002900480601f016020809104026020016040519081016040528092919081815260200182805460018160011615610100020316600290048015610c385780601f10610c0d57610100808354040283529160200191610c38565b820191906000526020600020905b815481529060010190602001808311610c1b57829003601f168201915b50505050508152602001600782018054600181600116156101000203166002900480601f016020809104026020016040519081016040528092919081815260200182805460018160011615610100020316600290048015610cda5780601f10610caf57610100808354040283529160200191610cda565b820191906000526020600020905b815481529060010190602001808311610cbd57829003601f168201915b505050505081525050815260200190600101906107fb565b50505050905090565b6001600282604051610d0d9190611dac565b90815260200160405180910390206000828254039250508190555050565b600060011515600384604051610d419190611dac565b908152602001604051809103902060008473ffffffffffffffffffffffffffffffffffffffff1673ffffffffffffffffffffffffffffffffffffffff16815260200190815260200160002060009054906101000a900460ff1615151415610dab5760019050610db0565b600090505b92915050565b60008181548110610dc357fe5b90600052602060002090600802016000915090508060000160009054906101000a900473ffffffffffffffffffffffffffffffffffffffff1690806001018054600181600116156101000203166002900480601f016020809104026020016040519081016040528092919081815260200182805460018160011615610100020316600290048015610e955780601f10610e6a57610100808354040283529160200191610e95565b820191906000526020600020905b815481529060010190602001808311610e7857829003601f168201915b505050505090806002018054600181600116156101000203166002900480601f016020809104026020016040519081016040528092919081815260200182805460018160011615610100020316600290048015610f335780601f10610f0857610100808354040283529160200191610f33565b820191906000526020600020905b815481529060010190602001808311610f1657829003601f168201915b505050505090806003018054600181600116156101000203166002900480601f016020809104026020016040519081016040528092919081815260200182805460018160011615610100020316600290048015610fd15780601f10610fa657610100808354040283529160200191610fd1565b820191906000526020600020905b815481529060010190602001808311610fb457829003601f168201915b505050505090806004018054600181600116156101000203166002900480601f01602080910402602001604051908101604052809291908181526020018280546001816001161561010002031660029004801561106f5780601f106110445761010080835404028352916020019161106f565b820191906000526020600020905b81548152906001019060200180831161105257829003601f168201915b505050505090806005018054600181600116156101000203166002900480601f01602080910402602001604051908101604052809291908181526020018280546001816001161561010002031660029004801561110d5780601f106110e25761010080835404028352916020019161110d565b820191906000526020600020905b8154815290600101906020018083116110f057829003601f168201915b505050505090806006018054600181600116156101000203166002900480601f0160208091040260200160405190810160405280929190818152602001828054600181600116156101000203166002900480156111ab5780601f10611180576101008083540402835291602001916111ab565b820191906000526020600020905b81548152906001019060200180831161118e57829003601f168201915b505050505090806007018054600181600116156101000203166002900480601f0160208091040260200160405190810160405280929190818152602001828054600181600116156101000203166002900480156112495780601f1061121e57610100808354040283529160200191611249565b820191906000526020600020905b81548152906001019060200180831161122c57829003601f168201915b5050505050905088565b60016002826040516112659190611dac565b90815260200160405180910390206000828254019250508190555050565b606060005b60208160ff161080156112d35750600060f81b838260ff16602081106112aa57fe5b1a60f81b7effffffffffffffffffffffffffffffffffffffffffffffffffffffffffffff191614155b156112e5578080600101915050611288565b60608160ff1667ffffffffffffffff8111801561130157600080fd5b506040519080825280601f01601f1916602001820160405280156113345781602001600182028036833780820191505090505b509050600091505b60208260ff161080156113875750600060f81b848360ff166020811061135e57fe5b1a60f81b7effffffffffffffffffffffffffffffffffffffffffffffffffffffffffffff191614155b156113ea57838260ff166020811061139b57fe5b1a60f81b818360ff16815181106113ae57fe5b60200101907effffffffffffffffffffffffffffffffffffffffffffffffffffffffffffff1916908160001a905350818060010192505061133c565b8092505050919050565b6000600160008373ffffffffffffffffffffffffffffffffffffffff1673ffffffffffffffffffffffffffffffffffffffff168152602001908152602001600020549050919050565b80600460008473ffffffffffffffffffffffffffffffffffffffff1673ffffffffffffffffffffffffffffffffffffffff168152602001908152602001600020819055505050565b60006002826040516114979190611dac565b9081526020016040518091039020549050919050565b6000600460008373ffffffffffffffffffffffffffffffffffffffff1673ffffffffffffffffffffffffffffffffffffffff168152602001908152602001600020549050919050565b6002818051602081018201805184825260208301602085012081835280955050505050506000915090505481565b80600160008473ffffffffffffffffffffffffffffffffffffffff1673ffffffffffffffffffffffffffffffffffffffff168152602001908152602001600020600082825401925050819055505050565b60016020528060005260406000206000915090505481565b6003828051602081018201805184825260208301602085012081835280955050505050506020528060005260406000206000915091509054906101000a900460ff1681565b80600160008473ffffffffffffffffffffffffffffffffffffffff1673ffffffffffffffffffffffffffffffffffffffff168152602001908152602001600020541161161d57600080fd5b80600160008473ffffffffffffffffffffffffffffffffffffffff1673ffffffffffffffffffffffffffffffffffffffff168152602001908152602001600020600082825403925050819055505050565b60016003836040516116809190611dac565b908152602001604051809103902060008373ffffffffffffffffffffffffffffffffffffffff1673ffffffffffffffffffffffffffffffffffffffff16815260200190815260200160002060006101000a81548160ff0219169083151502179055505050565b828054600181600116156101000203166002900490600052602060002090601f016020900481019282601f1061172757805160ff1916838001178555611755565b82800160010185558215611755579182015b82811115611754578251825591602001919060010190611739565b5b5090506117629190611766565b5090565b5b8082111561177f576000816000905550600101611767565b5090565b6000813590506117928161209b565b92915050565b6000813590506117a7816120b2565b92915050565b600082601f8301126117be57600080fd5b81356117d16117cc82611f4f565b611f22565b915080825260208301602083018583830111156117ed57600080fd5b6117f8838284612048565b50505092915050565b600082601f83011261181257600080fd5b815161182561182082611f4f565b611f22565b9150808252602083016020830185838301111561184157600080fd5b61184c838284612057565b50505092915050565b600081359050611864816120c9565b92915050565b60006020828403121561187c57600080fd5b600061188a84828501611783565b91505092915050565b600080604083850312156118a657600080fd5b60006118b485828601611783565b92505060206118c585828601611798565b9150509250929050565b600080604083850312156118e257600080fd5b60006118f085828601611783565b925050602061190185828601611855565b9150509250929050565b60006020828403121561191d57600080fd5b600061192b84828501611798565b91505092915050565b60006020828403121561194657600080fd5b600082013567ffffffffffffffff81111561196057600080fd5b61196c848285016117ad565b91505092915050565b60006020828403121561198757600080fd5b600082015167ffffffffffffffff8111156119a157600080fd5b6119ad84828501611801565b91505092915050565b600080604083850312156119c957600080fd5b600083013567ffffffffffffffff8111156119e357600080fd5b6119ef858286016117ad565b9250506020611a0085828601611783565b9150509250929050565b60008060008060008060c08789031215611a2357600080fd5b600087013567ffffffffffffffff811115611a3d57600080fd5b611a4989828a016117ad565b965050602087013567ffffffffffffffff811115611a6657600080fd5b611a7289828a016117ad565b955050604087013567ffffffffffffffff811115611a8f57600080fd5b611a9b89828a016117ad565b945050606087013567ffffffffffffffff811115611ab857600080fd5b611ac489828a016117ad565b935050608087013567ffffffffffffffff811115611ae157600080fd5b611aed89828a016117ad565b92505060a087013567ffffffffffffffff811115611b0a57600080fd5b611b1689828a016117ad565b9150509295509295509295565b600060208284031215611b3557600080fd5b6000611b4384828501611855565b91505092915050565b6000611b588383611cc3565b905092915050565b611b6981611fec565b82525050565b611b7881611fec565b82525050565b6000611b8982611f8b565b611b938185611fae565b935083602082028501611ba585611f7b565b8060005b85811015611be15784840389528151611bc28582611b4c565b9450611bcd83611fa1565b925060208a01995050600181019050611ba9565b50829750879550505050505092915050565b611bfc81611ffe565b82525050565b611c0b8161200a565b82525050565b611c1a81612014565b82525050565b6000611c2b82611f96565b611c358185611fbf565b9350611c45818560208601612057565b611c4e8161208a565b840191505092915050565b6000611c6482611f96565b611c6e8185611fd0565b9350611c7e818560208601612057565b611c878161208a565b840191505092915050565b6000611c9d82611f96565b611ca78185611fe1565b9350611cb7818560208601612057565b80840191505092915050565b600061010083016000830151611cdc6000860182611b60565b5060208301518482036020860152611cf48282611c20565b91505060408301518482036040860152611d0e8282611c20565b91505060608301518482036060860152611d288282611c20565b91505060808301518482036080860152611d428282611c20565b91505060a083015184820360a0860152611d5c8282611c20565b91505060c083015184820360c0860152611d768282611c20565b91505060e083015184820360e0860152611d908282611c20565b9150508091505092915050565b611da68161203e565b82525050565b6000611db88284611c92565b915081905092915050565b600061010082019050611dd9600083018b611b6f565b8181036020830152611deb818a611c59565b90508181036040830152611dff8189611c59565b90508181036060830152611e138188611c59565b90508181036080830152611e278187611c59565b905081810360a0830152611e3b8186611c59565b905081810360c0830152611e4f8185611c59565b905081810360e0830152611e638184611c59565b90509998505050505050505050565b60006020820190508181036000830152611e8c8184611b7e565b905092915050565b6000602082019050611ea96000830184611bf3565b92915050565b6000602082019050611ec46000830184611c02565b92915050565b6000602082019050611edf6000830184611c11565b92915050565b60006020820190508181036000830152611eff8184611c59565b905092915050565b6000602082019050611f1c6000830184611d9d565b92915050565b6000604051905081810181811067ffffffffffffffff82111715611f4557600080fd5b8060405250919050565b600067ffffffffffffffff821115611f6657600080fd5b601f19601f8301169050602081019050919050565b6000819050602082019050919050565b600081519050919050565b600081519050919050565b6000602082019050919050565b600082825260208201905092915050565b600082825260208201905092915050565b600082825260208201905092915050565b600081905092915050565b6000611ff78261201e565b9050919050565b60008115159050919050565b6000819050919050565b6000819050919050565b600073ffffffffffffffffffffffffffffffffffffffff82169050919050565b6000819050919050565b82818337600083830152505050565b60005b8381101561207557808201518184015260208101905061205a565b83811115612084576000848401525b50505050565b6000601f19601f8301169050919050565b6120a481611fec565b81146120af57600080fd5b50565b6120bb8161200a565b81146120c657600080fd5b50565b6120d28161203e565b81146120dd57600080fd5b5056fea2646970667358221220e38454f6243c2e728d12431a5c2ad8aeeb392d26c12e1e639098743d5c1732b864736f6c63430007000033",
  "immutableReferences": {},
  "source": "// SPDX-License-Identifier: MIT\npragma experimental ABIEncoderV2;\npragma solidity ^0.7.0;\n\ncontract StoreHash {\n\n    struct newsUpdate {\n        address user;\n        string username;\n        string timeStamp;\n        string location;\n        string fileHash;\n        string imageHash;\n        string category;\n        string extension;\n    }\n\n    newsUpdate[] public newsList;\n    mapping(address => uint) public userReputation;\n    mapping(string => int) public postReputation;\n    mapping(string => mapping(address => bool)) public postToAccess;\n\n    mapping(address => bytes32) public userProfile;  // maps user address to a profile (username)\n\n    event storageUpdate(string newValue, address updatedBy);\n\n    function sendUpdate(string memory ipfsHash,string memory location, string memory time, string memory imageHash,string memory category, string memory extension) public {\n        newsList.push(newsUpdate({\n            user:msg.sender,\n            username: this.bytes32ToString(userProfile[msg.sender]),\n            timeStamp:time,\n            location:location,\n            fileHash: ipfsHash,\n            imageHash: imageHash,\n            category: category,\n            extension: extension\n        }));\n        //initialize the post vote to zero\n        postReputation[ipfsHash] = 0;\n        postToAccess[ipfsHash][msg.sender] =true;\n        if (userReputation[msg.sender] != 0x0){\n             userReputation[msg.sender]+=10;\n        }else{\n            userReputation[msg.sender]=10;\n        }\n    }\n\n    function getUpdate() public view returns (newsUpdate[] memory) {\n        return newsList;\n    }\n\n    function getReputation(address account) public view returns (uint){\n        return userReputation[account];\n    }\n\n    function increaseReputation(address account, uint amount) public  {\n        userReputation[account] +=amount;\n    }\n\n    function decreaseReputation(address account, uint amount) public  {\n        require(userReputation[account]>amount);\n        userReputation[account] -=amount;\n    }\n\n    function increaseVote(string memory ipfsHash) public {\n        postReputation[ipfsHash]+=1;\n    }\n\n    function decreaseVote(string memory ipfsHash) public {\n        postReputation[ipfsHash]-=1;\n    }\n\n    function getVote(string memory ipfsHash) public view returns (int){\n        return postReputation[ipfsHash];\n    }\n    // to grant access to user to a specfic post\n\n    function grantAccess(string memory ipfsHash, address account) public{\n        postToAccess[ipfsHash][account] =true;\n    }\n\n    function checkAccess(string memory ipfsHash, address account) public view returns (bool){\n        if (postToAccess[ipfsHash][account] == true){\n            return true;\n        }\n        return false;\n    }\n\n    function getUsername(address account) public view returns (bytes32){\n        return userProfile[account];\n    }\n\n    function setUsername(address account, bytes32 newName) public{\n        userProfile[account] = newName;\n    }\n\n    function bytes32ToString(bytes32 _bytes32) public pure returns (string memory) {\n        uint8 i = 0;\n        while(i < 32 && _bytes32[i] != 0) {\n            i++;\n        }\n        bytes memory bytesArray = new bytes(i);\n        for (i = 0; i < 32 && _bytes32[i] != 0; i++) {\n            bytesArray[i] = _bytes32[i];\n        }\n        return string(bytesArray);\n    }\n\n}\n",
  "sourcePath": "/Users/zeningluo/Documents/GitHub/IPFS-Ethereum-dApp/contracts/storehash.sol",
  "compiler": {
    "name": "solc",
    "version": "0.7.0+commit.9e61f92b.Emscripten.clang"
  },
  "schemaVersion": "3.3.1",
  "updatedAt": "2021-01-31T18:48:05.879Z",
  "devdoc": {
    "kind": "dev",
    "methods": {},
    "version": 1
  },
  "userdoc": {
    "kind": "user",
    "methods": {},
    "version": 1
  }
}