{
  "contractName": "StoreHash",
  "abi": [
    {
      "anonymous": false,
      "inputs": [
        {
          "indexed": false,
          "internalType": "string",
          "name": "newValue",
          "type": "string"
        },
        {
          "indexed": false,
          "internalType": "address",
          "name": "updatedBy",
          "type": "address"
        }
      ],
      "name": "storageUpdate",
      "type": "event"
    },
    {
      "inputs": [
        {
          "internalType": "uint256",
          "name": "",
          "type": "uint256"
        }
      ],
      "name": "newsList",
      "outputs": [
        {
          "internalType": "address",
          "name": "user",
          "type": "address"
        },
        {
          "internalType": "string",
          "name": "timeStamp",
          "type": "string"
        },
        {
          "internalType": "string",
          "name": "location",
          "type": "string"
        },
        {
          "internalType": "string",
          "name": "fileHash",
          "type": "string"
        },
        {
          "internalType": "string",
          "name": "imageHash",
          "type": "string"
        },
        {
          "internalType": "string",
          "name": "category",
          "type": "string"
        }
      ],
      "stateMutability": "view",
      "type": "function",
      "constant": true
    },
    {
      "inputs": [
        {
          "internalType": "address",
          "name": "",
          "type": "address"
        }
      ],
      "name": "userReputation",
      "outputs": [
        {
          "internalType": "uint256",
          "name": "",
          "type": "uint256"
        }
      ],
      "stateMutability": "view",
      "type": "function",
      "constant": true
    },
    {
      "inputs": [
        {
          "internalType": "string",
          "name": "ipfsHash",
          "type": "string"
        },
        {
          "internalType": "string",
          "name": "location",
          "type": "string"
        },
        {
          "internalType": "string",
          "name": "time",
          "type": "string"
        },
        {
          "internalType": "string",
          "name": "imageHash",
          "type": "string"
        },
        {
          "internalType": "string",
          "name": "category",
          "type": "string"
        }
      ],
      "name": "sendUpdate",
      "outputs": [],
      "stateMutability": "nonpayable",
      "type": "function"
    },
    {
      "inputs": [],
      "name": "getUpdate",
      "outputs": [
        {
          "components": [
            {
              "internalType": "address",
              "name": "user",
              "type": "address"
            },
            {
              "internalType": "string",
              "name": "timeStamp",
              "type": "string"
            },
            {
              "internalType": "string",
              "name": "location",
              "type": "string"
            },
            {
              "internalType": "string",
              "name": "fileHash",
              "type": "string"
            },
            {
              "internalType": "string",
              "name": "imageHash",
              "type": "string"
            },
            {
              "internalType": "string",
              "name": "category",
              "type": "string"
            }
          ],
          "internalType": "struct StoreHash.newsUpdate[]",
          "name": "",
          "type": "tuple[]"
        }
      ],
      "stateMutability": "view",
      "type": "function",
      "constant": true
    },
    {
      "inputs": [
        {
          "internalType": "address",
          "name": "account",
          "type": "address"
        }
      ],
      "name": "getReputation",
      "outputs": [
        {
          "internalType": "uint256",
          "name": "",
          "type": "uint256"
        }
      ],
      "stateMutability": "view",
      "type": "function",
      "constant": true
    },
    {
      "inputs": [
        {
          "internalType": "address",
          "name": "account",
          "type": "address"
        },
        {
          "internalType": "uint256",
          "name": "amount",
          "type": "uint256"
        }
      ],
      "name": "increaseReputation",
      "outputs": [],
      "stateMutability": "nonpayable",
      "type": "function"
    },
    {
      "inputs": [
        {
          "internalType": "address",
          "name": "account",
          "type": "address"
        },
        {
          "internalType": "uint256",
          "name": "amount",
          "type": "uint256"
        }
      ],
      "name": "decreaseReputation",
      "outputs": [],
      "stateMutability": "nonpayable",
      "type": "function"
    }
  ],
  "bytecode": "0x608060405234801561001057600080fd5b5061131e806100206000396000f3fe608060405234801561001057600080fd5b506004361061007d5760003560e01c8063d918cc121161005b578063d918cc1214610105578063ded86d6814610121578063e503bb051461013d578063ed9fa61b1461016d5761007d565b806325f5ec19146100825780635872f039146100a05780639c89a0e2146100d5575b600080fd5b61008a610189565b604051610097919061112f565b60405180910390f35b6100ba60048036038101906100b59190610eb5565b610568565b6040516100cc969594939291906110ab565b60405180910390f35b6100ef60048036038101906100ea9190610d61565b6108c9565b6040516100fc9190611151565b60405180910390f35b61011f600480360381019061011a9190610dc6565b610912565b005b61013b60048036038101906101369190610d8a565b610b41565b005b61015760048036038101906101529190610d61565b610b92565b6040516101649190611151565b60405180910390f35b61018760048036038101906101829190610d8a565b610baa565b005b60606000805480602002602001604051908101604052809291908181526020016000905b8282101561055f57838290600052602060002090600602016040518060c00160405290816000820160009054906101000a900473ffffffffffffffffffffffffffffffffffffffff1673ffffffffffffffffffffffffffffffffffffffff1673ffffffffffffffffffffffffffffffffffffffff168152602001600182018054600181600116156101000203166002900480601f0160208091040260200160405190810160405280929190818152602001828054600181600116156101000203166002900480156102bf5780601f10610294576101008083540402835291602001916102bf565b820191906000526020600020905b8154815290600101906020018083116102a257829003601f168201915b50505050508152602001600282018054600181600116156101000203166002900480601f0160208091040260200160405190810160405280929190818152602001828054600181600116156101000203166002900480156103615780601f1061033657610100808354040283529160200191610361565b820191906000526020600020905b81548152906001019060200180831161034457829003601f168201915b50505050508152602001600382018054600181600116156101000203166002900480601f0160208091040260200160405190810160405280929190818152602001828054600181600116156101000203166002900480156104035780601f106103d857610100808354040283529160200191610403565b820191906000526020600020905b8154815290600101906020018083116103e657829003601f168201915b50505050508152602001600482018054600181600116156101000203166002900480601f0160208091040260200160405190810160405280929190818152602001828054600181600116156101000203166002900480156104a55780601f1061047a576101008083540402835291602001916104a5565b820191906000526020600020905b81548152906001019060200180831161048857829003601f168201915b50505050508152602001600582018054600181600116156101000203166002900480601f0160208091040260200160405190810160405280929190818152602001828054600181600116156101000203166002900480156105475780601f1061051c57610100808354040283529160200191610547565b820191906000526020600020905b81548152906001019060200180831161052a57829003601f168201915b505050505081525050815260200190600101906101ad565b50505050905090565b6000818154811061057557fe5b90600052602060002090600602016000915090508060000160009054906101000a900473ffffffffffffffffffffffffffffffffffffffff1690806001018054600181600116156101000203166002900480601f0160208091040260200160405190810160405280929190818152602001828054600181600116156101000203166002900480156106475780601f1061061c57610100808354040283529160200191610647565b820191906000526020600020905b81548152906001019060200180831161062a57829003601f168201915b505050505090806002018054600181600116156101000203166002900480601f0160208091040260200160405190810160405280929190818152602001828054600181600116156101000203166002900480156106e55780601f106106ba576101008083540402835291602001916106e5565b820191906000526020600020905b8154815290600101906020018083116106c857829003601f168201915b505050505090806003018054600181600116156101000203166002900480601f0160208091040260200160405190810160405280929190818152602001828054600181600116156101000203166002900480156107835780601f1061075857610100808354040283529160200191610783565b820191906000526020600020905b81548152906001019060200180831161076657829003601f168201915b505050505090806004018054600181600116156101000203166002900480601f0160208091040260200160405190810160405280929190818152602001828054600181600116156101000203166002900480156108215780601f106107f657610100808354040283529160200191610821565b820191906000526020600020905b81548152906001019060200180831161080457829003601f168201915b505050505090806005018054600181600116156101000203166002900480601f0160208091040260200160405190810160405280929190818152602001828054600181600116156101000203166002900480156108bf5780601f10610894576101008083540402835291602001916108bf565b820191906000526020600020905b8154815290600101906020018083116108a257829003601f168201915b5050505050905086565b6000600160008373ffffffffffffffffffffffffffffffffffffffff1673ffffffffffffffffffffffffffffffffffffffff168152602001908152602001600020549050919050565b60006040518060c001604052803373ffffffffffffffffffffffffffffffffffffffff16815260200185815260200186815260200187815260200184815260200183815250908060018154018082558091505060019003906000526020600020906006020160009091909190915060008201518160000160006101000a81548173ffffffffffffffffffffffffffffffffffffffff021916908373ffffffffffffffffffffffffffffffffffffffff16021790555060208201518160010190805190602001906109e3929190610c46565b506040820151816002019080519060200190610a00929190610c46565b506060820151816003019080519060200190610a1d929190610c46565b506080820151816004019080519060200190610a3a929190610c46565b5060a0820151816005019080519060200190610a57929190610c46565b5050506000600160003373ffffffffffffffffffffffffffffffffffffffff1673ffffffffffffffffffffffffffffffffffffffff1681526020019081526020016000205414610af457600a600160003373ffffffffffffffffffffffffffffffffffffffff1673ffffffffffffffffffffffffffffffffffffffff16815260200190815260200160002060008282540192505081905550610b3a565b600a600160003373ffffffffffffffffffffffffffffffffffffffff1673ffffffffffffffffffffffffffffffffffffffff168152602001908152602001600020819055505b5050505050565b80600160008473ffffffffffffffffffffffffffffffffffffffff1673ffffffffffffffffffffffffffffffffffffffff168152602001908152602001600020600082825401925050819055505050565b60016020528060005260406000206000915090505481565b80600160008473ffffffffffffffffffffffffffffffffffffffff1673ffffffffffffffffffffffffffffffffffffffff1681526020019081526020016000205411610bf557600080fd5b80600160008473ffffffffffffffffffffffffffffffffffffffff1673ffffffffffffffffffffffffffffffffffffffff168152602001908152602001600020600082825403925050819055505050565b828054600181600116156101000203166002900490600052602060002090601f016020900481019282601f10610c8757805160ff1916838001178555610cb5565b82800160010185558215610cb5579182015b82811115610cb4578251825591602001919060010190610c99565b5b509050610cc29190610cc6565b5090565b5b80821115610cdf576000816000905550600101610cc7565b5090565b600081359050610cf2816112ba565b92915050565b600082601f830112610d0957600080fd5b8135610d1c610d1782611199565b61116c565b91508082526020830160208301858383011115610d3857600080fd5b610d43838284611267565b50505092915050565b600081359050610d5b816112d1565b92915050565b600060208284031215610d7357600080fd5b6000610d8184828501610ce3565b91505092915050565b60008060408385031215610d9d57600080fd5b6000610dab85828601610ce3565b9250506020610dbc85828601610d4c565b9150509250929050565b600080600080600060a08688031215610dde57600080fd5b600086013567ffffffffffffffff811115610df857600080fd5b610e0488828901610cf8565b955050602086013567ffffffffffffffff811115610e2157600080fd5b610e2d88828901610cf8565b945050604086013567ffffffffffffffff811115610e4a57600080fd5b610e5688828901610cf8565b935050606086013567ffffffffffffffff811115610e7357600080fd5b610e7f88828901610cf8565b925050608086013567ffffffffffffffff811115610e9c57600080fd5b610ea888828901610cf8565b9150509295509295909350565b600060208284031215610ec757600080fd5b6000610ed584828501610d4c565b91505092915050565b6000610eea8383610ff7565b905092915050565b610efb8161122b565b82525050565b610f0a8161122b565b82525050565b6000610f1b826111d5565b610f2581856111f8565b935083602082028501610f37856111c5565b8060005b85811015610f735784840389528151610f548582610ede565b9450610f5f836111eb565b925060208a01995050600181019050610f3b565b50829750879550505050505092915050565b6000610f90826111e0565b610f9a8185611209565b9350610faa818560208601611276565b610fb3816112a9565b840191505092915050565b6000610fc9826111e0565b610fd3818561121a565b9350610fe3818560208601611276565b610fec816112a9565b840191505092915050565b600060c08301600083015161100f6000860182610ef2565b50602083015184820360208601526110278282610f85565b915050604083015184820360408601526110418282610f85565b9150506060830151848203606086015261105b8282610f85565b915050608083015184820360808601526110758282610f85565b91505060a083015184820360a086015261108f8282610f85565b9150508091505092915050565b6110a58161125d565b82525050565b600060c0820190506110c06000830189610f01565b81810360208301526110d28188610fbe565b905081810360408301526110e68187610fbe565b905081810360608301526110fa8186610fbe565b9050818103608083015261110e8185610fbe565b905081810360a08301526111228184610fbe565b9050979650505050505050565b600060208201905081810360008301526111498184610f10565b905092915050565b6000602082019050611166600083018461109c565b92915050565b6000604051905081810181811067ffffffffffffffff8211171561118f57600080fd5b8060405250919050565b600067ffffffffffffffff8211156111b057600080fd5b601f19601f8301169050602081019050919050565b6000819050602082019050919050565b600081519050919050565b600081519050919050565b6000602082019050919050565b600082825260208201905092915050565b600082825260208201905092915050565b600082825260208201905092915050565b60006112368261123d565b9050919050565b600073ffffffffffffffffffffffffffffffffffffffff82169050919050565b6000819050919050565b82818337600083830152505050565b60005b83811015611294578082015181840152602081019050611279565b838111156112a3576000848401525b50505050565b6000601f19601f8301169050919050565b6112c38161122b565b81146112ce57600080fd5b50565b6112da8161125d565b81146112e557600080fd5b5056fea26469706673582212209bf0ad8370e7f60250135df817f19582ec75cc1dea4e2ae171e8a053f2fbc73b64736f6c63430007000033",
  "immutableReferences": {},
  "source": "// SPDX-License-Identifier: MIT\npragma experimental ABIEncoderV2;\npragma solidity ^0.7.0;\n\ncontract StoreHash {\n\n    struct newsUpdate {\n        address user;\n        string timeStamp;\n        string location;\n        string fileHash;\n        string imageHash;\n        string category;\n    }\n\n    newsUpdate[] public newsList;\n    mapping(address => uint) public userReputation;\n\n    event storageUpdate(string newValue, address updatedBy);\n    \n    function sendUpdate(string memory ipfsHash,string memory location, string memory time, string memory imageHash,string memory category) public {\n        newsList.push(newsUpdate({\n            user:msg.sender,\n            timeStamp:time,\n            location:location,\n            fileHash: ipfsHash,\n            imageHash: imageHash,\n            category: category\n        }));\n        if (userReputation[msg.sender] != 0x0){\n             userReputation[msg.sender]+=10;\n        }else{\n            userReputation[msg.sender]=10;\n        }\n       \n\n    }\n\n    function getUpdate() public view returns (newsUpdate[] memory) {\n        return newsList;\n    }\n\n    function getReputation(address account) public view returns (uint){\n        return userReputation[account];\n    }\n    \n    function increaseReputation(address account, uint amount) public  {\n        userReputation[account] +=amount;\n    }\n    \n    function decreaseReputation(address account, uint amount) public  {\n        require(userReputation[account]>amount);\n        userReputation[account] -=amount;\n    }\n    \n}\n\n",
  "sourcePath": "/Users/zeningluo/Documents/GitHub/IPFS-Ethereum-dApp/contracts/storehash.sol",
  "compiler": {
    "name": "solc",
    "version": "0.7.0+commit.9e61f92b.Emscripten.clang"
  },
  "schemaVersion": "3.3.1",
  "updatedAt": "2020-10-22T00:32:53.055Z",
  "networkType": "ethereum",
  "devdoc": {
    "kind": "dev",
    "methods": {},
    "version": 1
  },
  "userdoc": {
    "kind": "user",
    "methods": {},
    "version": 1
  }
}